{"contracts/HospitalPaymentRegistry.sol":{"HospitalPaymentRegistry":{"abi":[{"inputs":[],"stateMutability":"nonpayable","type":"constructor"},{"inputs":[],"name":"AccessControlBadConfirmation","type":"error"},{"inputs":[{"internalType":"address","name":"account","type":"address"},{"internalType":"bytes32","name":"neededRole","type":"bytes32"}],"name":"AccessControlUnauthorizedAccount","type":"error"},{"inputs":[],"name":"ReentrancyGuardReentrantCall","type":"error"},{"anonymous":false,"inputs":[{"indexed":true,"internalType":"bytes32","name":"paymentId","type":"bytes32"},{"indexed":true,"internalType":"bytes32","name":"appointmentId","type":"bytes32"},{"indexed":false,"internalType":"bytes32","name":"dataHash","type":"bytes32"},{"indexed":false,"internalType":"uint256","name":"amount","type":"uint256"},{"indexed":false,"internalType":"uint256","name":"timestamp","type":"uint256"},{"indexed":false,"internalType":"address","name":"recorder","type":"address"}],"name":"PaymentRecorded","type":"event"},{"anonymous":false,"inputs":[{"indexed":true,"internalType":"bytes32","name":"paymentId","type":"bytes32"},{"indexed":false,"internalType":"uint256","name":"refundAmount","type":"uint256"},{"indexed":false,"internalType":"uint256","name":"timestamp","type":"uint256"},{"indexed":false,"internalType":"string","name":"reason","type":"string"}],"name":"PaymentRefunded","type":"event"},{"anonymous":false,"inputs":[{"indexed":true,"internalType":"bytes32","name":"paymentId","type":"bytes32"},{"indexed":false,"internalType":"enum HospitalPaymentRegistry.PaymentStatus","name":"oldStatus","type":"uint8"},{"indexed":false,"internalType":"enum HospitalPaymentRegistry.PaymentStatus","name":"newStatus","type":"uint8"},{"indexed":false,"internalType":"uint256","name":"timestamp","type":"uint256"}],"name":"PaymentStatusUpdated","type":"event"},{"anonymous":false,"inputs":[{"indexed":true,"internalType":"bytes32","name":"paymentId","type":"bytes32"},{"indexed":false,"internalType":"bytes32","name":"dataHash","type":"bytes32"},{"indexed":false,"internalType":"uint256","name":"timestamp","type":"uint256"},{"indexed":false,"internalType":"address","name":"verifier","type":"address"}],"name":"PaymentVerified","type":"event"},{"anonymous":false,"inputs":[{"indexed":true,"internalType":"bytes32","name":"role","type":"bytes32"},{"indexed":true,"internalType":"bytes32","name":"previousAdminRole","type":"bytes32"},{"indexed":true,"internalType":"bytes32","name":"newAdminRole","type":"bytes32"}],"name":"RoleAdminChanged","type":"event"},{"anonymous":false,"inputs":[{"indexed":true,"internalType":"bytes32","name":"role","type":"bytes32"},{"indexed":true,"internalType":"address","name":"account","type":"address"},{"indexed":true,"internalType":"address","name":"sender","type":"address"}],"name":"RoleGranted","type":"event"},{"anonymous":false,"inputs":[{"indexed":true,"internalType":"bytes32","name":"role","type":"bytes32"},{"indexed":true,"internalType":"address","name":"account","type":"address"},{"indexed":true,"internalType":"address","name":"sender","type":"address"}],"name":"RoleRevoked","type":"event"},{"inputs":[],"name":"ADMIN_ROLE","outputs":[{"internalType":"bytes32","name":"","type":"bytes32"}],"stateMutability":"view","type":"function"},{"inputs":[],"name":"DEFAULT_ADMIN_ROLE","outputs":[{"internalType":"bytes32","name":"","type":"bytes32"}],"stateMutability":"view","type":"function"},{"inputs":[],"name":"RECORDER_ROLE","outputs":[{"internalType":"bytes32","name":"","type":"bytes32"}],"stateMutability":"view","type":"function"},{"inputs":[{"internalType":"bytes32","name":"","type":"bytes32"}],"name":"appointmentPayments","outputs":[{"internalType":"bytes32","name":"","type":"bytes32"}],"stateMutability":"view","type":"function"},{"inputs":[{"internalType":"address","name":"_patient","type":"address"}],"name":"getPatientPayments","outputs":[{"internalType":"bytes32[]","name":"","type":"bytes32[]"}],"stateMutability":"view","type":"function"},{"inputs":[{"internalType":"bytes32","name":"_paymentId","type":"bytes32"}],"name":"getPayment","outputs":[{"internalType":"bytes32","name":"dataHash","type":"bytes32"},{"internalType":"uint256","name":"amount","type":"uint256"},{"internalType":"uint256","name":"timestamp","type":"uint256"},{"internalType":"address","name":"recorder","type":"address"},{"internalType":"enum HospitalPaymentRegistry.PaymentStatus","name":"status","type":"uint8"}],"stateMutability":"view","type":"function"},{"inputs":[{"internalType":"bytes32","name":"_appointmentId","type":"bytes32"}],"name":"getPaymentByAppointment","outputs":[{"internalType":"bytes32","name":"","type":"bytes32"}],"stateMutability":"view","type":"function"},{"inputs":[{"internalType":"bytes32","name":"_paymentId","type":"bytes32"}],"name":"getPaymentHistory","outputs":[{"internalType":"bytes32[]","name":"","type":"bytes32[]"}],"stateMutability":"view","type":"function"},{"inputs":[{"internalType":"bytes32","name":"role","type":"bytes32"}],"name":"getRoleAdmin","outputs":[{"internalType":"bytes32","name":"","type":"bytes32"}],"stateMutability":"view","type":"function"},{"inputs":[],"name":"getStatistics","outputs":[{"internalType":"uint256","name":"totalPayments","type":"uint256"},{"internalType":"uint256","name":"totalAmount","type":"uint256"}],"stateMutability":"view","type":"function"},{"inputs":[{"internalType":"address","name":"account","type":"address"}],"name":"grantRecorderRole","outputs":[],"stateMutability":"nonpayable","type":"function"},{"inputs":[{"internalType":"bytes32","name":"role","type":"bytes32"},{"internalType":"address","name":"account","type":"address"}],"name":"grantRole","outputs":[],"stateMutability":"nonpayable","type":"function"},{"inputs":[{"internalType":"bytes32","name":"role","type":"bytes32"},{"internalType":"address","name":"account","type":"address"}],"name":"hasRole","outputs":[{"internalType":"bool","name":"","type":"bool"}],"stateMutability":"view","type":"function"},{"inputs":[{"internalType":"address","name":"","type":"address"},{"internalType":"uint256","name":"","type":"uint256"}],"name":"patientPayments","outputs":[{"internalType":"bytes32","name":"","type":"bytes32"}],"stateMutability":"view","type":"function"},{"inputs":[{"internalType":"bytes32","name":"","type":"bytes32"},{"internalType":"uint256","name":"","type":"uint256"}],"name":"paymentHistory","outputs":[{"internalType":"bytes32","name":"","type":"bytes32"}],"stateMutability":"view","type":"function"},{"inputs":[{"internalType":"bytes32","name":"","type":"bytes32"}],"name":"payments","outputs":[{"internalType":"bytes32","name":"dataHash","type":"bytes32"},{"internalType":"uint256","name":"amount","type":"uint256"},{"internalType":"uint256","name":"timestamp","type":"uint256"},{"internalType":"address","name":"recorder","type":"address"},{"internalType":"enum HospitalPaymentRegistry.PaymentStatus","name":"status","type":"uint8"},{"internalType":"bool","name":"exists","type":"bool"}],"stateMutability":"view","type":"function"},{"inputs":[{"internalType":"bytes32","name":"_paymentId","type":"bytes32"},{"internalType":"bytes32","name":"_appointmentId","type":"bytes32"},{"internalType":"bytes32","name":"_dataHash","type":"bytes32"},{"internalType":"uint256","name":"_amount","type":"uint256"},{"internalType":"address","name":"_patient","type":"address"}],"name":"recordPayment","outputs":[],"stateMutability":"nonpayable","type":"function"},{"inputs":[{"internalType":"bytes32","name":"_paymentId","type":"bytes32"},{"internalType":"string","name":"_reason","type":"string"}],"name":"refundPayment","outputs":[],"stateMutability":"nonpayable","type":"function"},{"inputs":[{"internalType":"bytes32","name":"role","type":"bytes32"},{"internalType":"address","name":"callerConfirmation","type":"address"}],"name":"renounceRole","outputs":[],"stateMutability":"nonpayable","type":"function"},{"inputs":[{"internalType":"address","name":"account","type":"address"}],"name":"revokeRecorderRole","outputs":[],"stateMutability":"nonpayable","type":"function"},{"inputs":[{"internalType":"bytes32","name":"role","type":"bytes32"},{"internalType":"address","name":"account","type":"address"}],"name":"revokeRole","outputs":[],"stateMutability":"nonpayable","type":"function"},{"inputs":[{"internalType":"bytes4","name":"interfaceId","type":"bytes4"}],"name":"supportsInterface","outputs":[{"internalType":"bool","name":"","type":"bool"}],"stateMutability":"view","type":"function"},{"inputs":[],"name":"totalAmountRecorded","outputs":[{"internalType":"uint256","name":"","type":"uint256"}],"stateMutability":"view","type":"function"},{"inputs":[],"name":"totalPaymentsRecorded","outputs":[{"internalType":"uint256","name":"","type":"uint256"}],"stateMutability":"view","type":"function"},{"inputs":[{"internalType":"bytes32","name":"_paymentId","type":"bytes32"},{"internalType":"enum HospitalPaymentRegistry.PaymentStatus","name":"_newStatus","type":"uint8"}],"name":"updatePaymentStatus","outputs":[],"stateMutability":"nonpayable","type":"function"},{"inputs":[{"internalType":"bytes32","name":"_paymentId","type":"bytes32"},{"internalType":"bytes32","name":"_dataHash","type":"bytes32"}],"name":"verifyPayment","outputs":[{"internalType":"bool","name":"isValid","type":"bool"},{"internalType":"enum HospitalPaymentRegistry.PaymentStatus","name":"status","type":"uint8"},{"internalType":"uint256","name":"amount","type":"uint256"},{"internalType":"uint256","name":"timestamp","type":"uint256"}],"stateMutability":"view","type":"function"}],"evm":{"bytecode":{"linkReferences":{},"object":"608060405234801561001057600080fd5b506001805561002060003361007c565b5061004b7fa49807205ce4d355092ef5a8a18f56e8913cf4a201fbe287825b095693c217753361007c565b506100767ff996da754c790e95d5c7ca3330cfcad529487fe9d1d8edb7afc65076fdf9adb43361007c565b50610128565b6000828152602081815260408083206001600160a01b038516845290915281205460ff1661011e576000838152602081815260408083206001600160a01b03861684529091529020805460ff191660011790556100d63390565b6001600160a01b0316826001600160a01b0316847f2f8788117e7eff1d82e926ec794901d17c78024a50270940304540a733656f0d60405160405180910390a4506001610122565b5060005b92915050565b61138e806101376000396000f3fe608060405234801561001057600080fd5b506004361061018e5760003560e01c806373962a5e116100de578063a217fddf11610097578063d547741f11610071578063d547741f146103e3578063dc85e4a9146103f6578063e66eefc814610409578063fdfa9b2c1461042d57600080fd5b8063a217fddf146103b3578063bbe20ed0146103bb578063bea86581146103ce57600080fd5b806373962a5e1461034657806375b238fc1461034f5780638e0d76b81461036457806391d1485414610377578063935768ec1461038a5780639e59d9eb146103aa57600080fd5b8063248a9ca31161014b578063372d6b2711610125578063372d6b27146102e557806339009cbd14610300578063504a3344146103135780636cc08d9b1461032657600080fd5b8063248a9ca31461029c5780632f2ff15d146102bf57806336568abe146102d257600080fd5b806301ffc9a7146101935780630716326d146101bb5780630ac849f0146102235780630f7219611461024657806316cac02a146102675780631cc4949514610287575b600080fd5b6101a66101a1366004610f2b565b610440565b60405190151581526020015b60405180910390f35b6102116101c9366004610f5c565b60026020819052600091825260409091208054600182015492820154600390920154909291906001600160a01b0381169060ff600160a01b8204811691600160a81b90041686565b6040516101b296959493929190610fad565b610236610231366004610ff1565b610477565b6040516101b29493929190611013565b610259610254366004611057565b610577565b6040519081526020016101b2565b61027a610275366004610f5c565b6105a8565b6040516101b29190611081565b61029a6102953660046110c5565b61060a565b005b6102596102aa366004610f5c565b60009081526020819052604090206001015490565b61029a6102cd366004611141565b61075b565b61029a6102e0366004611141565b610786565b600654600754604080519283526020830191909152016101b2565b61029a61030e36600461116d565b6107be565b61029a61032136600461116d565b6107f2565b610259610334366004610f5c565b60046020526000908152604090205481565b61025960075481565b61025960008051602061133983398151915281565b61029a610372366004611188565b610822565b6101a6610385366004611141565b610965565b610259610398366004610f5c565b60009081526004602052604090205490565b61025960065481565b610259600081565b6102596103c9366004610ff1565b61098e565b61025960008051602061131983398151915281565b61029a6103f1366004611141565b6109aa565b61029a6104043660046111bc565b6109cf565b61041c610417366004610f5c565b610c90565b6040516101b2959493929190611205565b61027a61043b36600461116d565b610d54565b60006001600160e01b03198216637965db0b60e01b148061047157506301ffc9a760e01b6001600160e01b03198316145b92915050565b6000828152600260205260408120600301548190819081908690600160a81b900460ff166104c05760405162461bcd60e51b81526004016104b790611240565b60405180910390fd5b6000878152600260208181526040808420815160c08101835281548152600182015493810193909352928301549082015260038201546001600160a01b03811660608301529091906080830190600160a01b900460ff16600481111561052857610528610f75565b600481111561053957610539610f75565b815260039190910154600160a81b900460ff161515602091820152815160808301519183015160409093015199149a90995090979650945050505050565b6003602052816000526040600020818154811061059357600080fd5b90600052602060002001600091509150505481565b6000818152600560209081526040918290208054835181840281018401909452808452606093928301828280156105fe57602002820191906000526020600020905b8154815260200190600101908083116105ea575b50505050509050919050565b60008051602061133983398151915261062281610dbe565b6000848152600260205260409020600301548490600160a81b900460ff1661065c5760405162461bcd60e51b81526004016104b790611240565b610664610dcb565b600085815260026020526040902060016003820154600160a01b900460ff16600481111561069457610694610f75565b146106ed5760405162461bcd60e51b815260206004820152602360248201527f43616e206f6e6c7920726566756e64207375636365737366756c207061796d656044820152626e747360e81b60648201526084016104b7565b60018101546003808301805460ff60a01b1916600160a01b830217905550867fda68185ef3d8efbb6f2de2c79d110c55ea430b1a5f2b7f10c9fba37f915f128f824289896040516107419493929190611270565b60405180910390a2505061075460018055565b5050505050565b60008281526020819052604090206001015461077681610dbe565b6107808383610df5565b50505050565b6001600160a01b03811633146107af5760405163334bd91960e11b815260040160405180910390fd5b6107b98282610e87565b505050565b6000805160206113398339815191526107d681610dbe565b6107ee600080516020611319833981519152836109aa565b5050565b60008051602061133983398151915261080a81610dbe565b6107ee6000805160206113198339815191528361075b565b60008051602061133983398151915261083a81610dbe565b6000838152600260205260409020600301548390600160a81b900460ff166108745760405162461bcd60e51b81526004016104b790611240565b60008481526002602052604090206003810154600160a01b900460ff168460048111156108a3576108a3610f75565b8160048111156108b5576108b5610f75565b036108f55760405162461bcd60e51b815260206004820152601060248201526f14dd185d1d5cc81d5b98da185b99d95960821b60448201526064016104b7565b60038201805486919060ff60a01b1916600160a01b83600481111561091c5761091c610f75565b0217905550857f71cac1a58ec1b08d876082616356a5d268f37007184d77af867dce01c2546edb828742604051610955939291906112ad565b60405180910390a2505050505050565b6000918252602082815260408084206001600160a01b0393909316845291905290205460ff1690565b6005602052816000526040600020818154811061059357600080fd5b6000828152602081905260409020600101546109c581610dbe565b6107808383610e87565b6000805160206113198339815191526109e781610dbe565b6000868152600260205260409020600301548690600160a81b900460ff1615610a4b5760405162461bcd60e51b81526020600482015260166024820152755061796d656e7420616c72656164792065786973747360501b60448201526064016104b7565b610a53610dcb565b60008411610aa35760405162461bcd60e51b815260206004820152601d60248201527f416d6f756e74206d7573742062652067726561746572207468616e203000000060448201526064016104b7565b84610ae45760405162461bcd60e51b8152602060048201526011602482015270092dcecc2d8d2c840c8c2e8c240d0c2e6d607b1b60448201526064016104b7565b6040805160c08101825286815260208101869052429181019190915233606082015260808101600181526001602091820181905260008a815260028084526040918290208551815593850151928401929092558301519082015560608201516003820180546001600160a01b039092166001600160a01b03198316811782556080850151926001600160a81b03191617600160a01b836004811115610b8b57610b8b610f75565b021790555060a0919091015160039182018054911515600160a81b0260ff60a81b199092169190911790556001600160a01b038416600090815260209182526040808220805460018181018355918452848420018b9055898352600484528183208b90558a8352600584529082208054918201815582529181209091018690556006805491610c19836112ec565b91905055508360076000828254610c309190611305565b9091555050604080518681526020810186905242818301523360608201529051879189917fff4e4e4468f0d2cabf6a443f0ae31afeb6ed380c3ba12f4f5c295ed2c9cef2089181900360800190a3610c8760018055565b50505050505050565b6000818152600260208181526040808420815160c08101835281548152600182015493810193909352928301549082015260038201546001600160a01b038116606083015283928392839283928392916080830190600160a01b900460ff166004811115610d0057610d00610f75565b6004811115610d1157610d11610f75565b815260039190910154600160a81b900460ff16151560209182015281519082015160408301516060840151608090940151929b919a509850919650945092505050565b6001600160a01b0381166000908152600360209081526040918290208054835181840281018401909452808452606093928301828280156105fe57602002820191906000526020600020908154815260200190600101908083116105ea5750505050509050919050565b610dc88133610ef2565b50565b600260015403610dee57604051633ee5aeb560e01b815260040160405180910390fd5b6002600155565b6000610e018383610965565b610e7f576000838152602081815260408083206001600160a01b03861684529091529020805460ff19166001179055610e373390565b6001600160a01b0316826001600160a01b0316847f2f8788117e7eff1d82e926ec794901d17c78024a50270940304540a733656f0d60405160405180910390a4506001610471565b506000610471565b6000610e938383610965565b15610e7f576000838152602081815260408083206001600160a01b0386168085529252808320805460ff1916905551339286917ff6391f5c32d9c69d2a47ea670b442974b53935d1edc7fd64eb21e047a839171b9190a4506001610471565b610efc8282610965565b6107ee5760405163e2517d3f60e01b81526001600160a01b0382166004820152602481018390526044016104b7565b600060208284031215610f3d57600080fd5b81356001600160e01b031981168114610f5557600080fd5b9392505050565b600060208284031215610f6e57600080fd5b5035919050565b634e487b7160e01b600052602160045260246000fd5b60058110610fa957634e487b7160e01b600052602160045260246000fd5b9052565b86815260208101869052604081018590526001600160a01b038416606082015260c08101610fde6080830185610f8b565b82151560a0830152979650505050505050565b6000806040838503121561100457600080fd5b50508035926020909101359150565b8415158152608081016110296020830186610f8b565b60408201939093526060015292915050565b80356001600160a01b038116811461105257600080fd5b919050565b6000806040838503121561106a57600080fd5b6110738361103b565b946020939093013593505050565b6020808252825182820181905260009190848201906040850190845b818110156110b95783518352928401929184019160010161109d565b50909695505050505050565b6000806000604084860312156110da57600080fd5b83359250602084013567ffffffffffffffff808211156110f957600080fd5b818601915086601f83011261110d57600080fd5b81358181111561111c57600080fd5b87602082850101111561112e57600080fd5b6020830194508093505050509250925092565b6000806040838503121561115457600080fd5b823591506111646020840161103b565b90509250929050565b60006020828403121561117f57600080fd5b610f558261103b565b6000806040838503121561119b57600080fd5b823591506020830135600581106111b157600080fd5b809150509250929050565b600080600080600060a086880312156111d457600080fd5b853594506020860135935060408601359250606086013591506111f96080870161103b565b90509295509295909350565b85815260208101859052604081018490526001600160a01b038316606082015260a081016112366080830184610f8b565b9695505050505050565b60208082526016908201527514185e5b595b9d08191bd95cc81b9bdd08195e1a5cdd60521b604082015260600190565b84815283602082015260606040820152816060820152818360808301376000818301608090810191909152601f909201601f191601019392505050565b606081016112bb8286610f8b565b6112c86020830185610f8b565b826040830152949350505050565b634e487b7160e01b600052601160045260246000fd5b6000600182016112fe576112fe6112d6565b5060010190565b80820180821115610471576104716112d656fef996da754c790e95d5c7ca3330cfcad529487fe9d1d8edb7afc65076fdf9adb4a49807205ce4d355092ef5a8a18f56e8913cf4a201fbe287825b095693c21775a2646970667358221220c2c69210d6e668d66a70e5f256c23b7ef978ccfbe6a2dda9b48cf6532c3fac7764736f6c63430008140033","opcodes":"PUSH1 0x80 PUSH1 0x40 MSTORE CALLVALUE DUP1 ISZERO PUSH2 0x10 JUMPI PUSH1 0x0 DUP1 REVERT JUMPDEST POP PUSH1 0x1 DUP1 SSTORE PUSH2 0x20 PUSH1 0x0 CALLER PUSH2 0x7C JUMP JUMPDEST POP PUSH2 0x4B PUSH32 0xA49807205CE4D355092EF5A8A18F56E8913CF4A201FBE287825B095693C21775 CALLER PUSH2 0x7C JUMP JUMPDEST POP PUSH2 0x76 PUSH32 0xF996DA754C790E95D5C7CA3330CFCAD529487FE9D1D8EDB7AFC65076FDF9ADB4 CALLER PUSH2 0x7C JUMP JUMPDEST POP PUSH2 0x128 JUMP JUMPDEST PUSH1 0x0 DUP3 DUP2 MSTORE PUSH1 0x20 DUP2 DUP2 MSTORE PUSH1 0x40 DUP1 DUP4 KECCAK256 PUSH1 0x1 PUSH1 0x1 PUSH1 0xA0 SHL SUB DUP6 AND DUP5 MSTORE SWAP1 SWAP2 MSTORE DUP2 KECCAK256 SLOAD PUSH1 0xFF AND PUSH2 0x11E JUMPI PUSH1 0x0 DUP4 DUP2 MSTORE PUSH1 0x20 DUP2 DUP2 MSTORE PUSH1 0x40 DUP1 DUP4 KECCAK256 PUSH1 0x1 PUSH1 0x1 PUSH1 0xA0 SHL SUB DUP7 AND DUP5 MSTORE SWAP1 SWAP2 MSTORE SWAP1 KECCAK256 DUP1 SLOAD PUSH1 0xFF NOT AND PUSH1 0x1 OR SWAP1 SSTORE PUSH2 0xD6 CALLER SWAP1 JUMP JUMPDEST PUSH1 0x1 PUSH1 0x1 PUSH1 0xA0 SHL SUB AND DUP3 PUSH1 0x1 PUSH1 0x1 PUSH1 0xA0 SHL SUB AND DUP5 PUSH32 0x2F8788117E7EFF1D82E926EC794901D17C78024A50270940304540A733656F0D PUSH1 0x40 MLOAD PUSH1 0x40 MLOAD DUP1 SWAP2 SUB SWAP1 LOG4 POP PUSH1 0x1 PUSH2 0x122 JUMP JUMPDEST POP PUSH1 0x0 JUMPDEST SWAP3 SWAP2 POP POP JUMP JUMPDEST PUSH2 0x138E DUP1 PUSH2 0x137 PUSH1 0x0 CODECOPY PUSH1 0x0 RETURN INVALID PUSH1 0x80 PUSH1 0x40 MSTORE CALLVALUE DUP1 ISZERO PUSH2 0x10 JUMPI PUSH1 0x0 DUP1 REVERT JUMPDEST POP PUSH1 0x4 CALLDATASIZE LT PUSH2 0x18E JUMPI PUSH1 0x0 CALLDATALOAD PUSH1 0xE0 SHR DUP1 PUSH4 0x73962A5E GT PUSH2 0xDE JUMPI DUP1 PUSH4 0xA217FDDF GT PUSH2 0x97 JUMPI DUP1 PUSH4 0xD547741F GT PUSH2 0x71 JUMPI DUP1 PUSH4 0xD547741F EQ PUSH2 0x3E3 JUMPI DUP1 PUSH4 0xDC85E4A9 EQ PUSH2 0x3F6 JUMPI DUP1 PUSH4 0xE66EEFC8 EQ PUSH2 0x409 JUMPI DUP1 PUSH4 0xFDFA9B2C EQ PUSH2 0x42D JUMPI PUSH1 0x0 DUP1 REVERT JUMPDEST DUP1 PUSH4 0xA217FDDF EQ PUSH2 0x3B3 JUMPI DUP1 PUSH4 0xBBE20ED0 EQ PUSH2 0x3BB JUMPI DUP1 PUSH4 0xBEA86581 EQ PUSH2 0x3CE JUMPI PUSH1 0x0 DUP1 REVERT JUMPDEST DUP1 PUSH4 0x73962A5E EQ PUSH2 0x346 JUMPI DUP1 PUSH4 0x75B238FC EQ PUSH2 0x34F JUMPI DUP1 PUSH4 0x8E0D76B8 EQ PUSH2 0x364 JUMPI DUP1 PUSH4 0x91D14854 EQ PUSH2 0x377 JUMPI DUP1 PUSH4 0x935768EC EQ PUSH2 0x38A JUMPI DUP1 PUSH4 0x9E59D9EB EQ PUSH2 0x3AA JUMPI PUSH1 0x0 DUP1 REVERT JUMPDEST DUP1 PUSH4 0x248A9CA3 GT PUSH2 0x14B JUMPI DUP1 PUSH4 0x372D6B27 GT PUSH2 0x125 JUMPI DUP1 PUSH4 0x372D6B27 EQ PUSH2 0x2E5 JUMPI DUP1 PUSH4 0x39009CBD EQ PUSH2 0x300 JUMPI DUP1 PUSH4 0x504A3344 EQ PUSH2 0x313 JUMPI DUP1 PUSH4 0x6CC08D9B EQ PUSH2 0x326 JUMPI PUSH1 0x0 DUP1 REVERT JUMPDEST DUP1 PUSH4 0x248A9CA3 EQ PUSH2 0x29C JUMPI DUP1 PUSH4 0x2F2FF15D EQ PUSH2 0x2BF JUMPI DUP1 PUSH4 0x36568ABE EQ PUSH2 0x2D2 JUMPI PUSH1 0x0 DUP1 REVERT JUMPDEST DUP1 PUSH4 0x1FFC9A7 EQ PUSH2 0x193 JUMPI DUP1 PUSH4 0x716326D EQ PUSH2 0x1BB JUMPI DUP1 PUSH4 0xAC849F0 EQ PUSH2 0x223 JUMPI DUP1 PUSH4 0xF721961 EQ PUSH2 0x246 JUMPI DUP1 PUSH4 0x16CAC02A EQ PUSH2 0x267 JUMPI DUP1 PUSH4 0x1CC49495 EQ PUSH2 0x287 JUMPI JUMPDEST PUSH1 0x0 DUP1 REVERT JUMPDEST PUSH2 0x1A6 PUSH2 0x1A1 CALLDATASIZE PUSH1 0x4 PUSH2 0xF2B JUMP JUMPDEST PUSH2 0x440 JUMP JUMPDEST PUSH1 0x40 MLOAD SWAP1 ISZERO ISZERO DUP2 MSTORE PUSH1 0x20 ADD JUMPDEST PUSH1 0x40 MLOAD DUP1 SWAP2 SUB SWAP1 RETURN JUMPDEST PUSH2 0x211 PUSH2 0x1C9 CALLDATASIZE PUSH1 0x4 PUSH2 0xF5C JUMP JUMPDEST PUSH1 0x2 PUSH1 0x20 DUP2 SWAP1 MSTORE PUSH1 0x0 SWAP2 DUP3 MSTORE PUSH1 0x40 SWAP1 SWAP2 KECCAK256 DUP1 SLOAD PUSH1 0x1 DUP3 ADD SLOAD SWAP3 DUP3 ADD SLOAD PUSH1 0x3 SWAP1 SWAP3 ADD SLOAD SWAP1 SWAP3 SWAP2 SWAP1 PUSH1 0x1 PUSH1 0x1 PUSH1 0xA0 SHL SUB DUP2 AND SWAP1 PUSH1 0xFF PUSH1 0x1 PUSH1 0xA0 SHL DUP3 DIV DUP2 AND SWAP2 PUSH1 0x1 PUSH1 0xA8 SHL SWAP1 DIV AND DUP7 JUMP JUMPDEST PUSH1 0x40 MLOAD PUSH2 0x1B2 SWAP7 SWAP6 SWAP5 SWAP4 SWAP3 SWAP2 SWAP1 PUSH2 0xFAD JUMP JUMPDEST PUSH2 0x236 PUSH2 0x231 CALLDATASIZE PUSH1 0x4 PUSH2 0xFF1 JUMP JUMPDEST PUSH2 0x477 JUMP JUMPDEST PUSH1 0x40 MLOAD PUSH2 0x1B2 SWAP5 SWAP4 SWAP3 SWAP2 SWAP1 PUSH2 0x1013 JUMP JUMPDEST PUSH2 0x259 PUSH2 0x254 CALLDATASIZE PUSH1 0x4 PUSH2 0x1057 JUMP JUMPDEST PUSH2 0x577 JUMP JUMPDEST PUSH1 0x40 MLOAD SWAP1 DUP2 MSTORE PUSH1 0x20 ADD PUSH2 0x1B2 JUMP JUMPDEST PUSH2 0x27A PUSH2 0x275 CALLDATASIZE PUSH1 0x4 PUSH2 0xF5C JUMP JUMPDEST PUSH2 0x5A8 JUMP JUMPDEST PUSH1 0x40 MLOAD PUSH2 0x1B2 SWAP2 SWAP1 PUSH2 0x1081 JUMP JUMPDEST PUSH2 0x29A PUSH2 0x295 CALLDATASIZE PUSH1 0x4 PUSH2 0x10C5 JUMP JUMPDEST PUSH2 0x60A JUMP JUMPDEST STOP JUMPDEST PUSH2 0x259 PUSH2 0x2AA CALLDATASIZE PUSH1 0x4 PUSH2 0xF5C JUMP JUMPDEST PUSH1 0x0 SWAP1 DUP2 MSTORE PUSH1 0x20 DUP2 SWAP1 MSTORE PUSH1 0x40 SWAP1 KECCAK256 PUSH1 0x1 ADD SLOAD SWAP1 JUMP JUMPDEST PUSH2 0x29A PUSH2 0x2CD CALLDATASIZE PUSH1 0x4 PUSH2 0x1141 JUMP JUMPDEST PUSH2 0x75B JUMP JUMPDEST PUSH2 0x29A PUSH2 0x2E0 CALLDATASIZE PUSH1 0x4 PUSH2 0x1141 JUMP JUMPDEST PUSH2 0x786 JUMP JUMPDEST PUSH1 0x6 SLOAD PUSH1 0x7 SLOAD PUSH1 0x40 DUP1 MLOAD SWAP3 DUP4 MSTORE PUSH1 0x20 DUP4 ADD SWAP2 SWAP1 SWAP2 MSTORE ADD PUSH2 0x1B2 JUMP JUMPDEST PUSH2 0x29A PUSH2 0x30E CALLDATASIZE PUSH1 0x4 PUSH2 0x116D JUMP JUMPDEST PUSH2 0x7BE JUMP JUMPDEST PUSH2 0x29A PUSH2 0x321 CALLDATASIZE PUSH1 0x4 PUSH2 0x116D JUMP JUMPDEST PUSH2 0x7F2 JUMP JUMPDEST PUSH2 0x259 PUSH2 0x334 CALLDATASIZE PUSH1 0x4 PUSH2 0xF5C JUMP JUMPDEST PUSH1 0x4 PUSH1 0x20 MSTORE PUSH1 0x0 SWAP1 DUP2 MSTORE PUSH1 0x40 SWAP1 KECCAK256 SLOAD DUP2 JUMP JUMPDEST PUSH2 0x259 PUSH1 0x7 SLOAD DUP2 JUMP JUMPDEST PUSH2 0x259 PUSH1 0x0 DUP1 MLOAD PUSH1 0x20 PUSH2 0x1339 DUP4 CODECOPY DUP2 MLOAD SWAP2 MSTORE DUP2 JUMP JUMPDEST PUSH2 0x29A PUSH2 0x372 CALLDATASIZE PUSH1 0x4 PUSH2 0x1188 JUMP JUMPDEST PUSH2 0x822 JUMP JUMPDEST PUSH2 0x1A6 PUSH2 0x385 CALLDATASIZE PUSH1 0x4 PUSH2 0x1141 JUMP JUMPDEST PUSH2 0x965 JUMP JUMPDEST PUSH2 0x259 PUSH2 0x398 CALLDATASIZE PUSH1 0x4 PUSH2 0xF5C JUMP JUMPDEST PUSH1 0x0 SWAP1 DUP2 MSTORE PUSH1 0x4 PUSH1 0x20 MSTORE PUSH1 0x40 SWAP1 KECCAK256 SLOAD SWAP1 JUMP JUMPDEST PUSH2 0x259 PUSH1 0x6 SLOAD DUP2 JUMP JUMPDEST PUSH2 0x259 PUSH1 0x0 DUP2 JUMP JUMPDEST PUSH2 0x259 PUSH2 0x3C9 CALLDATASIZE PUSH1 0x4 PUSH2 0xFF1 JUMP JUMPDEST PUSH2 0x98E JUMP JUMPDEST PUSH2 0x259 PUSH1 0x0 DUP1 MLOAD PUSH1 0x20 PUSH2 0x1319 DUP4 CODECOPY DUP2 MLOAD SWAP2 MSTORE DUP2 JUMP JUMPDEST PUSH2 0x29A PUSH2 0x3F1 CALLDATASIZE PUSH1 0x4 PUSH2 0x1141 JUMP JUMPDEST PUSH2 0x9AA JUMP JUMPDEST PUSH2 0x29A PUSH2 0x404 CALLDATASIZE PUSH1 0x4 PUSH2 0x11BC JUMP JUMPDEST PUSH2 0x9CF JUMP JUMPDEST PUSH2 0x41C PUSH2 0x417 CALLDATASIZE PUSH1 0x4 PUSH2 0xF5C JUMP JUMPDEST PUSH2 0xC90 JUMP JUMPDEST PUSH1 0x40 MLOAD PUSH2 0x1B2 SWAP6 SWAP5 SWAP4 SWAP3 SWAP2 SWAP1 PUSH2 0x1205 JUMP JUMPDEST PUSH2 0x27A PUSH2 0x43B CALLDATASIZE PUSH1 0x4 PUSH2 0x116D JUMP JUMPDEST PUSH2 0xD54 JUMP JUMPDEST PUSH1 0x0 PUSH1 0x1 PUSH1 0x1 PUSH1 0xE0 SHL SUB NOT DUP3 AND PUSH4 0x7965DB0B PUSH1 0xE0 SHL EQ DUP1 PUSH2 0x471 JUMPI POP PUSH4 0x1FFC9A7 PUSH1 0xE0 SHL PUSH1 0x1 PUSH1 0x1 PUSH1 0xE0 SHL SUB NOT DUP4 AND EQ JUMPDEST SWAP3 SWAP2 POP POP JUMP JUMPDEST PUSH1 0x0 DUP3 DUP2 MSTORE PUSH1 0x2 PUSH1 0x20 MSTORE PUSH1 0x40 DUP2 KECCAK256 PUSH1 0x3 ADD SLOAD DUP2 SWAP1 DUP2 SWAP1 DUP2 SWAP1 DUP7 SWAP1 PUSH1 0x1 PUSH1 0xA8 SHL SWAP1 DIV PUSH1 0xFF AND PUSH2 0x4C0 JUMPI PUSH1 0x40 MLOAD PUSH3 0x461BCD PUSH1 0xE5 SHL DUP2 MSTORE PUSH1 0x4 ADD PUSH2 0x4B7 SWAP1 PUSH2 0x1240 JUMP JUMPDEST PUSH1 0x40 MLOAD DUP1 SWAP2 SUB SWAP1 REVERT JUMPDEST PUSH1 0x0 DUP8 DUP2 MSTORE PUSH1 0x2 PUSH1 0x20 DUP2 DUP2 MSTORE PUSH1 0x40 DUP1 DUP5 KECCAK256 DUP2 MLOAD PUSH1 0xC0 DUP2 ADD DUP4 MSTORE DUP2 SLOAD DUP2 MSTORE PUSH1 0x1 DUP3 ADD SLOAD SWAP4 DUP2 ADD SWAP4 SWAP1 SWAP4 MSTORE SWAP3 DUP4 ADD SLOAD SWAP1 DUP3 ADD MSTORE PUSH1 0x3 DUP3 ADD SLOAD PUSH1 0x1 PUSH1 0x1 PUSH1 0xA0 SHL SUB DUP2 AND PUSH1 0x60 DUP4 ADD MSTORE SWAP1 SWAP2 SWAP1 PUSH1 0x80 DUP4 ADD SWAP1 PUSH1 0x1 PUSH1 0xA0 SHL SWAP1 DIV PUSH1 0xFF AND PUSH1 0x4 DUP2 GT ISZERO PUSH2 0x528 JUMPI PUSH2 0x528 PUSH2 0xF75 JUMP JUMPDEST PUSH1 0x4 DUP2 GT ISZERO PUSH2 0x539 JUMPI PUSH2 0x539 PUSH2 0xF75 JUMP JUMPDEST DUP2 MSTORE PUSH1 0x3 SWAP2 SWAP1 SWAP2 ADD SLOAD PUSH1 0x1 PUSH1 0xA8 SHL SWAP1 DIV PUSH1 0xFF AND ISZERO ISZERO PUSH1 0x20 SWAP2 DUP3 ADD MSTORE DUP2 MLOAD PUSH1 0x80 DUP4 ADD MLOAD SWAP2 DUP4 ADD MLOAD PUSH1 0x40 SWAP1 SWAP4 ADD MLOAD SWAP10 EQ SWAP11 SWAP1 SWAP10 POP SWAP1 SWAP8 SWAP7 POP SWAP5 POP POP POP POP POP JUMP JUMPDEST PUSH1 0x3 PUSH1 0x20 MSTORE DUP2 PUSH1 0x0 MSTORE PUSH1 0x40 PUSH1 0x0 KECCAK256 DUP2 DUP2 SLOAD DUP2 LT PUSH2 0x593 JUMPI PUSH1 0x0 DUP1 REVERT JUMPDEST SWAP1 PUSH1 0x0 MSTORE PUSH1 0x20 PUSH1 0x0 KECCAK256 ADD PUSH1 0x0 SWAP2 POP SWAP2 POP POP SLOAD DUP2 JUMP JUMPDEST PUSH1 0x0 DUP2 DUP2 MSTORE PUSH1 0x5 PUSH1 0x20 SWAP1 DUP2 MSTORE PUSH1 0x40 SWAP2 DUP3 SWAP1 KECCAK256 DUP1 SLOAD DUP4 MLOAD DUP2 DUP5 MUL DUP2 ADD DUP5 ADD SWAP1 SWAP5 MSTORE DUP1 DUP5 MSTORE PUSH1 0x60 SWAP4 SWAP3 DUP4 ADD DUP3 DUP3 DUP1 ISZERO PUSH2 0x5FE JUMPI PUSH1 0x20 MUL DUP3 ADD SWAP2 SWAP1 PUSH1 0x0 MSTORE PUSH1 0x20 PUSH1 0x0 KECCAK256 SWAP1 JUMPDEST DUP2 SLOAD DUP2 MSTORE PUSH1 0x20 ADD SWAP1 PUSH1 0x1 ADD SWAP1 DUP1 DUP4 GT PUSH2 0x5EA JUMPI JUMPDEST POP POP POP POP POP SWAP1 POP SWAP2 SWAP1 POP JUMP JUMPDEST PUSH1 0x0 DUP1 MLOAD PUSH1 0x20 PUSH2 0x1339 DUP4 CODECOPY DUP2 MLOAD SWAP2 MSTORE PUSH2 0x622 DUP2 PUSH2 0xDBE JUMP JUMPDEST PUSH1 0x0 DUP5 DUP2 MSTORE PUSH1 0x2 PUSH1 0x20 MSTORE PUSH1 0x40 SWAP1 KECCAK256 PUSH1 0x3 ADD SLOAD DUP5 SWAP1 PUSH1 0x1 PUSH1 0xA8 SHL SWAP1 DIV PUSH1 0xFF AND PUSH2 0x65C JUMPI PUSH1 0x40 MLOAD PUSH3 0x461BCD PUSH1 0xE5 SHL DUP2 MSTORE PUSH1 0x4 ADD PUSH2 0x4B7 SWAP1 PUSH2 0x1240 JUMP JUMPDEST PUSH2 0x664 PUSH2 0xDCB JUMP JUMPDEST PUSH1 0x0 DUP6 DUP2 MSTORE PUSH1 0x2 PUSH1 0x20 MSTORE PUSH1 0x40 SWAP1 KECCAK256 PUSH1 0x1 PUSH1 0x3 DUP3 ADD SLOAD PUSH1 0x1 PUSH1 0xA0 SHL SWAP1 DIV PUSH1 0xFF AND PUSH1 0x4 DUP2 GT ISZERO PUSH2 0x694 JUMPI PUSH2 0x694 PUSH2 0xF75 JUMP JUMPDEST EQ PUSH2 0x6ED JUMPI PUSH1 0x40 MLOAD PUSH3 0x461BCD PUSH1 0xE5 SHL DUP2 MSTORE PUSH1 0x20 PUSH1 0x4 DUP3 ADD MSTORE PUSH1 0x23 PUSH1 0x24 DUP3 ADD MSTORE PUSH32 0x43616E206F6E6C7920726566756E64207375636365737366756C207061796D65 PUSH1 0x44 DUP3 ADD MSTORE PUSH3 0x6E7473 PUSH1 0xE8 SHL PUSH1 0x64 DUP3 ADD MSTORE PUSH1 0x84 ADD PUSH2 0x4B7 JUMP JUMPDEST PUSH1 0x1 DUP2 ADD SLOAD PUSH1 0x3 DUP1 DUP4 ADD DUP1 SLOAD PUSH1 0xFF PUSH1 0xA0 SHL NOT AND PUSH1 0x1 PUSH1 0xA0 SHL DUP4 MUL OR SWAP1 SSTORE POP DUP7 PUSH32 0xDA68185EF3D8EFBB6F2DE2C79D110C55EA430B1A5F2B7F10C9FBA37F915F128F DUP3 TIMESTAMP DUP10 DUP10 PUSH1 0x40 MLOAD PUSH2 0x741 SWAP5 SWAP4 SWAP3 SWAP2 SWAP1 PUSH2 0x1270 JUMP JUMPDEST PUSH1 0x40 MLOAD DUP1 SWAP2 SUB SWAP1 LOG2 POP POP PUSH2 0x754 PUSH1 0x1 DUP1 SSTORE JUMP JUMPDEST POP POP POP POP POP JUMP JUMPDEST PUSH1 0x0 DUP3 DUP2 MSTORE PUSH1 0x20 DUP2 SWAP1 MSTORE PUSH1 0x40 SWAP1 KECCAK256 PUSH1 0x1 ADD SLOAD PUSH2 0x776 DUP2 PUSH2 0xDBE JUMP JUMPDEST PUSH2 0x780 DUP4 DUP4 PUSH2 0xDF5 JUMP JUMPDEST POP POP POP POP JUMP JUMPDEST PUSH1 0x1 PUSH1 0x1 PUSH1 0xA0 SHL SUB DUP2 AND CALLER EQ PUSH2 0x7AF JUMPI PUSH1 0x40 MLOAD PUSH4 0x334BD919 PUSH1 0xE1 SHL DUP2 MSTORE PUSH1 0x4 ADD PUSH1 0x40 MLOAD DUP1 SWAP2 SUB SWAP1 REVERT JUMPDEST PUSH2 0x7B9 DUP3 DUP3 PUSH2 0xE87 JUMP JUMPDEST POP POP POP JUMP JUMPDEST PUSH1 0x0 DUP1 MLOAD PUSH1 0x20 PUSH2 0x1339 DUP4 CODECOPY DUP2 MLOAD SWAP2 MSTORE PUSH2 0x7D6 DUP2 PUSH2 0xDBE JUMP JUMPDEST PUSH2 0x7EE PUSH1 0x0 DUP1 MLOAD PUSH1 0x20 PUSH2 0x1319 DUP4 CODECOPY DUP2 MLOAD SWAP2 MSTORE DUP4 PUSH2 0x9AA JUMP JUMPDEST POP POP JUMP JUMPDEST PUSH1 0x0 DUP1 MLOAD PUSH1 0x20 PUSH2 0x1339 DUP4 CODECOPY DUP2 MLOAD SWAP2 MSTORE PUSH2 0x80A DUP2 PUSH2 0xDBE JUMP JUMPDEST PUSH2 0x7EE PUSH1 0x0 DUP1 MLOAD PUSH1 0x20 PUSH2 0x1319 DUP4 CODECOPY DUP2 MLOAD SWAP2 MSTORE DUP4 PUSH2 0x75B JUMP JUMPDEST PUSH1 0x0 DUP1 MLOAD PUSH1 0x20 PUSH2 0x1339 DUP4 CODECOPY DUP2 MLOAD SWAP2 MSTORE PUSH2 0x83A DUP2 PUSH2 0xDBE JUMP JUMPDEST PUSH1 0x0 DUP4 DUP2 MSTORE PUSH1 0x2 PUSH1 0x20 MSTORE PUSH1 0x40 SWAP1 KECCAK256 PUSH1 0x3 ADD SLOAD DUP4 SWAP1 PUSH1 0x1 PUSH1 0xA8 SHL SWAP1 DIV PUSH1 0xFF AND PUSH2 0x874 JUMPI PUSH1 0x40 MLOAD PUSH3 0x461BCD PUSH1 0xE5 SHL DUP2 MSTORE PUSH1 0x4 ADD PUSH2 0x4B7 SWAP1 PUSH2 0x1240 JUMP JUMPDEST PUSH1 0x0 DUP5 DUP2 MSTORE PUSH1 0x2 PUSH1 0x20 MSTORE PUSH1 0x40 SWAP1 KECCAK256 PUSH1 0x3 DUP2 ADD SLOAD PUSH1 0x1 PUSH1 0xA0 SHL SWAP1 DIV PUSH1 0xFF AND DUP5 PUSH1 0x4 DUP2 GT ISZERO PUSH2 0x8A3 JUMPI PUSH2 0x8A3 PUSH2 0xF75 JUMP JUMPDEST DUP2 PUSH1 0x4 DUP2 GT ISZERO PUSH2 0x8B5 JUMPI PUSH2 0x8B5 PUSH2 0xF75 JUMP JUMPDEST SUB PUSH2 0x8F5 JUMPI PUSH1 0x40 MLOAD PUSH3 0x461BCD PUSH1 0xE5 SHL DUP2 MSTORE PUSH1 0x20 PUSH1 0x4 DUP3 ADD MSTORE PUSH1 0x10 PUSH1 0x24 DUP3 ADD MSTORE PUSH16 0x14DD185D1D5CC81D5B98DA185B99D959 PUSH1 0x82 SHL PUSH1 0x44 DUP3 ADD MSTORE PUSH1 0x64 ADD PUSH2 0x4B7 JUMP JUMPDEST PUSH1 0x3 DUP3 ADD DUP1 SLOAD DUP7 SWAP2 SWAP1 PUSH1 0xFF PUSH1 0xA0 SHL NOT AND PUSH1 0x1 PUSH1 0xA0 SHL DUP4 PUSH1 0x4 DUP2 GT ISZERO PUSH2 0x91C JUMPI PUSH2 0x91C PUSH2 0xF75 JUMP JUMPDEST MUL OR SWAP1 SSTORE POP DUP6 PUSH32 0x71CAC1A58EC1B08D876082616356A5D268F37007184D77AF867DCE01C2546EDB DUP3 DUP8 TIMESTAMP PUSH1 0x40 MLOAD PUSH2 0x955 SWAP4 SWAP3 SWAP2 SWAP1 PUSH2 0x12AD JUMP JUMPDEST PUSH1 0x40 MLOAD DUP1 SWAP2 SUB SWAP1 LOG2 POP POP POP POP POP POP JUMP JUMPDEST PUSH1 0x0 SWAP2 DUP3 MSTORE PUSH1 0x20 DUP3 DUP2 MSTORE PUSH1 0x40 DUP1 DUP5 KECCAK256 PUSH1 0x1 PUSH1 0x1 PUSH1 0xA0 SHL SUB SWAP4 SWAP1 SWAP4 AND DUP5 MSTORE SWAP2 SWAP1 MSTORE SWAP1 KECCAK256 SLOAD PUSH1 0xFF AND SWAP1 JUMP JUMPDEST PUSH1 0x5 PUSH1 0x20 MSTORE DUP2 PUSH1 0x0 MSTORE PUSH1 0x40 PUSH1 0x0 KECCAK256 DUP2 DUP2 SLOAD DUP2 LT PUSH2 0x593 JUMPI PUSH1 0x0 DUP1 REVERT JUMPDEST PUSH1 0x0 DUP3 DUP2 MSTORE PUSH1 0x20 DUP2 SWAP1 MSTORE PUSH1 0x40 SWAP1 KECCAK256 PUSH1 0x1 ADD SLOAD PUSH2 0x9C5 DUP2 PUSH2 0xDBE JUMP JUMPDEST PUSH2 0x780 DUP4 DUP4 PUSH2 0xE87 JUMP JUMPDEST PUSH1 0x0 DUP1 MLOAD PUSH1 0x20 PUSH2 0x1319 DUP4 CODECOPY DUP2 MLOAD SWAP2 MSTORE PUSH2 0x9E7 DUP2 PUSH2 0xDBE JUMP JUMPDEST PUSH1 0x0 DUP7 DUP2 MSTORE PUSH1 0x2 PUSH1 0x20 MSTORE PUSH1 0x40 SWAP1 KECCAK256 PUSH1 0x3 ADD SLOAD DUP7 SWAP1 PUSH1 0x1 PUSH1 0xA8 SHL SWAP1 DIV PUSH1 0xFF AND ISZERO PUSH2 0xA4B JUMPI PUSH1 0x40 MLOAD PUSH3 0x461BCD PUSH1 0xE5 SHL DUP2 MSTORE PUSH1 0x20 PUSH1 0x4 DUP3 ADD MSTORE PUSH1 0x16 PUSH1 0x24 DUP3 ADD MSTORE PUSH22 0x5061796D656E7420616C726561647920657869737473 PUSH1 0x50 SHL PUSH1 0x44 DUP3 ADD MSTORE PUSH1 0x64 ADD PUSH2 0x4B7 JUMP JUMPDEST PUSH2 0xA53 PUSH2 0xDCB JUMP JUMPDEST PUSH1 0x0 DUP5 GT PUSH2 0xAA3 JUMPI PUSH1 0x40 MLOAD PUSH3 0x461BCD PUSH1 0xE5 SHL DUP2 MSTORE PUSH1 0x20 PUSH1 0x4 DUP3 ADD MSTORE PUSH1 0x1D PUSH1 0x24 DUP3 ADD MSTORE PUSH32 0x416D6F756E74206D7573742062652067726561746572207468616E2030000000 PUSH1 0x44 DUP3 ADD MSTORE PUSH1 0x64 ADD PUSH2 0x4B7 JUMP JUMPDEST DUP5 PUSH2 0xAE4 JUMPI PUSH1 0x40 MLOAD PUSH3 0x461BCD PUSH1 0xE5 SHL DUP2 MSTORE PUSH1 0x20 PUSH1 0x4 DUP3 ADD MSTORE PUSH1 0x11 PUSH1 0x24 DUP3 ADD MSTORE PUSH17 0x92DCECC2D8D2C840C8C2E8C240D0C2E6D PUSH1 0x7B SHL PUSH1 0x44 DUP3 ADD MSTORE PUSH1 0x64 ADD PUSH2 0x4B7 JUMP JUMPDEST PUSH1 0x40 DUP1 MLOAD PUSH1 0xC0 DUP2 ADD DUP3 MSTORE DUP7 DUP2 MSTORE PUSH1 0x20 DUP2 ADD DUP7 SWAP1 MSTORE TIMESTAMP SWAP2 DUP2 ADD SWAP2 SWAP1 SWAP2 MSTORE CALLER PUSH1 0x60 DUP3 ADD MSTORE PUSH1 0x80 DUP2 ADD PUSH1 0x1 DUP2 MSTORE PUSH1 0x1 PUSH1 0x20 SWAP2 DUP3 ADD DUP2 SWAP1 MSTORE PUSH1 0x0 DUP11 DUP2 MSTORE PUSH1 0x2 DUP1 DUP5 MSTORE PUSH1 0x40 SWAP2 DUP3 SWAP1 KECCAK256 DUP6 MLOAD DUP2 SSTORE SWAP4 DUP6 ADD MLOAD SWAP3 DUP5 ADD SWAP3 SWAP1 SWAP3 SSTORE DUP4 ADD MLOAD SWAP1 DUP3 ADD SSTORE PUSH1 0x60 DUP3 ADD MLOAD PUSH1 0x3 DUP3 ADD DUP1 SLOAD PUSH1 0x1 PUSH1 0x1 PUSH1 0xA0 SHL SUB SWAP1 SWAP3 AND PUSH1 0x1 PUSH1 0x1 PUSH1 0xA0 SHL SUB NOT DUP4 AND DUP2 OR DUP3 SSTORE PUSH1 0x80 DUP6 ADD MLOAD SWAP3 PUSH1 0x1 PUSH1 0x1 PUSH1 0xA8 SHL SUB NOT AND OR PUSH1 0x1 PUSH1 0xA0 SHL DUP4 PUSH1 0x4 DUP2 GT ISZERO PUSH2 0xB8B JUMPI PUSH2 0xB8B PUSH2 0xF75 JUMP JUMPDEST MUL OR SWAP1 SSTORE POP PUSH1 0xA0 SWAP2 SWAP1 SWAP2 ADD MLOAD PUSH1 0x3 SWAP2 DUP3 ADD DUP1 SLOAD SWAP2 ISZERO ISZERO PUSH1 0x1 PUSH1 0xA8 SHL MUL PUSH1 0xFF PUSH1 0xA8 SHL NOT SWAP1 SWAP3 AND SWAP2 SWAP1 SWAP2 OR SWAP1 SSTORE PUSH1 0x1 PUSH1 0x1 PUSH1 0xA0 SHL SUB DUP5 AND PUSH1 0x0 SWAP1 DUP2 MSTORE PUSH1 0x20 SWAP2 DUP3 MSTORE PUSH1 0x40 DUP1 DUP3 KECCAK256 DUP1 SLOAD PUSH1 0x1 DUP2 DUP2 ADD DUP4 SSTORE SWAP2 DUP5 MSTORE DUP5 DUP5 KECCAK256 ADD DUP12 SWAP1 SSTORE DUP10 DUP4 MSTORE PUSH1 0x4 DUP5 MSTORE DUP2 DUP4 KECCAK256 DUP12 SWAP1 SSTORE DUP11 DUP4 MSTORE PUSH1 0x5 DUP5 MSTORE SWAP1 DUP3 KECCAK256 DUP1 SLOAD SWAP2 DUP3 ADD DUP2 SSTORE DUP3 MSTORE SWAP2 DUP2 KECCAK256 SWAP1 SWAP2 ADD DUP7 SWAP1 SSTORE PUSH1 0x6 DUP1 SLOAD SWAP2 PUSH2 0xC19 DUP4 PUSH2 0x12EC JUMP JUMPDEST SWAP2 SWAP1 POP SSTORE POP DUP4 PUSH1 0x7 PUSH1 0x0 DUP3 DUP3 SLOAD PUSH2 0xC30 SWAP2 SWAP1 PUSH2 0x1305 JUMP JUMPDEST SWAP1 SWAP2 SSTORE POP POP PUSH1 0x40 DUP1 MLOAD DUP7 DUP2 MSTORE PUSH1 0x20 DUP2 ADD DUP7 SWAP1 MSTORE TIMESTAMP DUP2 DUP4 ADD MSTORE CALLER PUSH1 0x60 DUP3 ADD MSTORE SWAP1 MLOAD DUP8 SWAP2 DUP10 SWAP2 PUSH32 0xFF4E4E4468F0D2CABF6A443F0AE31AFEB6ED380C3BA12F4F5C295ED2C9CEF208 SWAP2 DUP2 SWAP1 SUB PUSH1 0x80 ADD SWAP1 LOG3 PUSH2 0xC87 PUSH1 0x1 DUP1 SSTORE JUMP JUMPDEST POP POP POP POP POP POP POP JUMP JUMPDEST PUSH1 0x0 DUP2 DUP2 MSTORE PUSH1 0x2 PUSH1 0x20 DUP2 DUP2 MSTORE PUSH1 0x40 DUP1 DUP5 KECCAK256 DUP2 MLOAD PUSH1 0xC0 DUP2 ADD DUP4 MSTORE DUP2 SLOAD DUP2 MSTORE PUSH1 0x1 DUP3 ADD SLOAD SWAP4 DUP2 ADD SWAP4 SWAP1 SWAP4 MSTORE SWAP3 DUP4 ADD SLOAD SWAP1 DUP3 ADD MSTORE PUSH1 0x3 DUP3 ADD SLOAD PUSH1 0x1 PUSH1 0x1 PUSH1 0xA0 SHL SUB DUP2 AND PUSH1 0x60 DUP4 ADD MSTORE DUP4 SWAP3 DUP4 SWAP3 DUP4 SWAP3 DUP4 SWAP3 DUP4 SWAP3 SWAP2 PUSH1 0x80 DUP4 ADD SWAP1 PUSH1 0x1 PUSH1 0xA0 SHL SWAP1 DIV PUSH1 0xFF AND PUSH1 0x4 DUP2 GT ISZERO PUSH2 0xD00 JUMPI PUSH2 0xD00 PUSH2 0xF75 JUMP JUMPDEST PUSH1 0x4 DUP2 GT ISZERO PUSH2 0xD11 JUMPI PUSH2 0xD11 PUSH2 0xF75 JUMP JUMPDEST DUP2 MSTORE PUSH1 0x3 SWAP2 SWAP1 SWAP2 ADD SLOAD PUSH1 0x1 PUSH1 0xA8 SHL SWAP1 DIV PUSH1 0xFF AND ISZERO ISZERO PUSH1 0x20 SWAP2 DUP3 ADD MSTORE DUP2 MLOAD SWAP1 DUP3 ADD MLOAD PUSH1 0x40 DUP4 ADD MLOAD PUSH1 0x60 DUP5 ADD MLOAD PUSH1 0x80 SWAP1 SWAP5 ADD MLOAD SWAP3 SWAP12 SWAP2 SWAP11 POP SWAP9 POP SWAP2 SWAP7 POP SWAP5 POP SWAP3 POP POP POP JUMP JUMPDEST PUSH1 0x1 PUSH1 0x1 PUSH1 0xA0 SHL SUB DUP2 AND PUSH1 0x0 SWAP1 DUP2 MSTORE PUSH1 0x3 PUSH1 0x20 SWAP1 DUP2 MSTORE PUSH1 0x40 SWAP2 DUP3 SWAP1 KECCAK256 DUP1 SLOAD DUP4 MLOAD DUP2 DUP5 MUL DUP2 ADD DUP5 ADD SWAP1 SWAP5 MSTORE DUP1 DUP5 MSTORE PUSH1 0x60 SWAP4 SWAP3 DUP4 ADD DUP3 DUP3 DUP1 ISZERO PUSH2 0x5FE JUMPI PUSH1 0x20 MUL DUP3 ADD SWAP2 SWAP1 PUSH1 0x0 MSTORE PUSH1 0x20 PUSH1 0x0 KECCAK256 SWAP1 DUP2 SLOAD DUP2 MSTORE PUSH1 0x20 ADD SWAP1 PUSH1 0x1 ADD SWAP1 DUP1 DUP4 GT PUSH2 0x5EA JUMPI POP POP POP POP POP SWAP1 POP SWAP2 SWAP1 POP JUMP JUMPDEST PUSH2 0xDC8 DUP2 CALLER PUSH2 0xEF2 JUMP JUMPDEST POP JUMP JUMPDEST PUSH1 0x2 PUSH1 0x1 SLOAD SUB PUSH2 0xDEE JUMPI PUSH1 0x40 MLOAD PUSH4 0x3EE5AEB5 PUSH1 0xE0 SHL DUP2 MSTORE PUSH1 0x4 ADD PUSH1 0x40 MLOAD DUP1 SWAP2 SUB SWAP1 REVERT JUMPDEST PUSH1 0x2 PUSH1 0x1 SSTORE JUMP JUMPDEST PUSH1 0x0 PUSH2 0xE01 DUP4 DUP4 PUSH2 0x965 JUMP JUMPDEST PUSH2 0xE7F JUMPI PUSH1 0x0 DUP4 DUP2 MSTORE PUSH1 0x20 DUP2 DUP2 MSTORE PUSH1 0x40 DUP1 DUP4 KECCAK256 PUSH1 0x1 PUSH1 0x1 PUSH1 0xA0 SHL SUB DUP7 AND DUP5 MSTORE SWAP1 SWAP2 MSTORE SWAP1 KECCAK256 DUP1 SLOAD PUSH1 0xFF NOT AND PUSH1 0x1 OR SWAP1 SSTORE PUSH2 0xE37 CALLER SWAP1 JUMP JUMPDEST PUSH1 0x1 PUSH1 0x1 PUSH1 0xA0 SHL SUB AND DUP3 PUSH1 0x1 PUSH1 0x1 PUSH1 0xA0 SHL SUB AND DUP5 PUSH32 0x2F8788117E7EFF1D82E926EC794901D17C78024A50270940304540A733656F0D PUSH1 0x40 MLOAD PUSH1 0x40 MLOAD DUP1 SWAP2 SUB SWAP1 LOG4 POP PUSH1 0x1 PUSH2 0x471 JUMP JUMPDEST POP PUSH1 0x0 PUSH2 0x471 JUMP JUMPDEST PUSH1 0x0 PUSH2 0xE93 DUP4 DUP4 PUSH2 0x965 JUMP JUMPDEST ISZERO PUSH2 0xE7F JUMPI PUSH1 0x0 DUP4 DUP2 MSTORE PUSH1 0x20 DUP2 DUP2 MSTORE PUSH1 0x40 DUP1 DUP4 KECCAK256 PUSH1 0x1 PUSH1 0x1 PUSH1 0xA0 SHL SUB DUP7 AND DUP1 DUP6 MSTORE SWAP3 MSTORE DUP1 DUP4 KECCAK256 DUP1 SLOAD PUSH1 0xFF NOT AND SWAP1 SSTORE MLOAD CALLER SWAP3 DUP7 SWAP2 PUSH32 0xF6391F5C32D9C69D2A47EA670B442974B53935D1EDC7FD64EB21E047A839171B SWAP2 SWAP1 LOG4 POP PUSH1 0x1 PUSH2 0x471 JUMP JUMPDEST PUSH2 0xEFC DUP3 DUP3 PUSH2 0x965 JUMP JUMPDEST PUSH2 0x7EE JUMPI PUSH1 0x40 MLOAD PUSH4 0xE2517D3F PUSH1 0xE0 SHL DUP2 MSTORE PUSH1 0x1 PUSH1 0x1 PUSH1 0xA0 SHL SUB DUP3 AND PUSH1 0x4 DUP3 ADD MSTORE PUSH1 0x24 DUP2 ADD DUP4 SWAP1 MSTORE PUSH1 0x44 ADD PUSH2 0x4B7 JUMP JUMPDEST PUSH1 0x0 PUSH1 0x20 DUP3 DUP5 SUB SLT ISZERO PUSH2 0xF3D JUMPI PUSH1 0x0 DUP1 REVERT JUMPDEST DUP2 CALLDATALOAD PUSH1 0x1 PUSH1 0x1 PUSH1 0xE0 SHL SUB NOT DUP2 AND DUP2 EQ PUSH2 0xF55 JUMPI PUSH1 0x0 DUP1 REVERT JUMPDEST SWAP4 SWAP3 POP POP POP JUMP JUMPDEST PUSH1 0x0 PUSH1 0x20 DUP3 DUP5 SUB SLT ISZERO PUSH2 0xF6E JUMPI PUSH1 0x0 DUP1 REVERT JUMPDEST POP CALLDATALOAD SWAP2 SWAP1 POP JUMP JUMPDEST PUSH4 0x4E487B71 PUSH1 0xE0 SHL PUSH1 0x0 MSTORE PUSH1 0x21 PUSH1 0x4 MSTORE PUSH1 0x24 PUSH1 0x0 REVERT JUMPDEST PUSH1 0x5 DUP2 LT PUSH2 0xFA9 JUMPI PUSH4 0x4E487B71 PUSH1 0xE0 SHL PUSH1 0x0 MSTORE PUSH1 0x21 PUSH1 0x4 MSTORE PUSH1 0x24 PUSH1 0x0 REVERT JUMPDEST SWAP1 MSTORE JUMP JUMPDEST DUP7 DUP2 MSTORE PUSH1 0x20 DUP2 ADD DUP7 SWAP1 MSTORE PUSH1 0x40 DUP2 ADD DUP6 SWAP1 MSTORE PUSH1 0x1 PUSH1 0x1 PUSH1 0xA0 SHL SUB DUP5 AND PUSH1 0x60 DUP3 ADD MSTORE PUSH1 0xC0 DUP2 ADD PUSH2 0xFDE PUSH1 0x80 DUP4 ADD DUP6 PUSH2 0xF8B JUMP JUMPDEST DUP3 ISZERO ISZERO PUSH1 0xA0 DUP4 ADD MSTORE SWAP8 SWAP7 POP POP POP POP POP POP POP JUMP JUMPDEST PUSH1 0x0 DUP1 PUSH1 0x40 DUP4 DUP6 SUB SLT ISZERO PUSH2 0x1004 JUMPI PUSH1 0x0 DUP1 REVERT JUMPDEST POP POP DUP1 CALLDATALOAD SWAP3 PUSH1 0x20 SWAP1 SWAP2 ADD CALLDATALOAD SWAP2 POP JUMP JUMPDEST DUP5 ISZERO ISZERO DUP2 MSTORE PUSH1 0x80 DUP2 ADD PUSH2 0x1029 PUSH1 0x20 DUP4 ADD DUP7 PUSH2 0xF8B JUMP JUMPDEST PUSH1 0x40 DUP3 ADD SWAP4 SWAP1 SWAP4 MSTORE PUSH1 0x60 ADD MSTORE SWAP3 SWAP2 POP POP JUMP JUMPDEST DUP1 CALLDATALOAD PUSH1 0x1 PUSH1 0x1 PUSH1 0xA0 SHL SUB DUP2 AND DUP2 EQ PUSH2 0x1052 JUMPI PUSH1 0x0 DUP1 REVERT JUMPDEST SWAP2 SWAP1 POP JUMP JUMPDEST PUSH1 0x0 DUP1 PUSH1 0x40 DUP4 DUP6 SUB SLT ISZERO PUSH2 0x106A JUMPI PUSH1 0x0 DUP1 REVERT JUMPDEST PUSH2 0x1073 DUP4 PUSH2 0x103B JUMP JUMPDEST SWAP5 PUSH1 0x20 SWAP4 SWAP1 SWAP4 ADD CALLDATALOAD SWAP4 POP POP POP JUMP JUMPDEST PUSH1 0x20 DUP1 DUP3 MSTORE DUP3 MLOAD DUP3 DUP3 ADD DUP2 SWAP1 MSTORE PUSH1 0x0 SWAP2 SWAP1 DUP5 DUP3 ADD SWAP1 PUSH1 0x40 DUP6 ADD SWAP1 DUP5 JUMPDEST DUP2 DUP2 LT ISZERO PUSH2 0x10B9 JUMPI DUP4 MLOAD DUP4 MSTORE SWAP3 DUP5 ADD SWAP3 SWAP2 DUP5 ADD SWAP2 PUSH1 0x1 ADD PUSH2 0x109D JUMP JUMPDEST POP SWAP1 SWAP7 SWAP6 POP POP POP POP POP POP JUMP JUMPDEST PUSH1 0x0 DUP1 PUSH1 0x0 PUSH1 0x40 DUP5 DUP7 SUB SLT ISZERO PUSH2 0x10DA JUMPI PUSH1 0x0 DUP1 REVERT JUMPDEST DUP4 CALLDATALOAD SWAP3 POP PUSH1 0x20 DUP5 ADD CALLDATALOAD PUSH8 0xFFFFFFFFFFFFFFFF DUP1 DUP3 GT ISZERO PUSH2 0x10F9 JUMPI PUSH1 0x0 DUP1 REVERT JUMPDEST DUP2 DUP7 ADD SWAP2 POP DUP7 PUSH1 0x1F DUP4 ADD SLT PUSH2 0x110D JUMPI PUSH1 0x0 DUP1 REVERT JUMPDEST DUP2 CALLDATALOAD DUP2 DUP2 GT ISZERO PUSH2 0x111C JUMPI PUSH1 0x0 DUP1 REVERT JUMPDEST DUP8 PUSH1 0x20 DUP3 DUP6 ADD ADD GT ISZERO PUSH2 0x112E JUMPI PUSH1 0x0 DUP1 REVERT JUMPDEST PUSH1 0x20 DUP4 ADD SWAP5 POP DUP1 SWAP4 POP POP POP POP SWAP3 POP SWAP3 POP SWAP3 JUMP JUMPDEST PUSH1 0x0 DUP1 PUSH1 0x40 DUP4 DUP6 SUB SLT ISZERO PUSH2 0x1154 JUMPI PUSH1 0x0 DUP1 REVERT JUMPDEST DUP3 CALLDATALOAD SWAP2 POP PUSH2 0x1164 PUSH1 0x20 DUP5 ADD PUSH2 0x103B JUMP JUMPDEST SWAP1 POP SWAP3 POP SWAP3 SWAP1 POP JUMP JUMPDEST PUSH1 0x0 PUSH1 0x20 DUP3 DUP5 SUB SLT ISZERO PUSH2 0x117F JUMPI PUSH1 0x0 DUP1 REVERT JUMPDEST PUSH2 0xF55 DUP3 PUSH2 0x103B JUMP JUMPDEST PUSH1 0x0 DUP1 PUSH1 0x40 DUP4 DUP6 SUB SLT ISZERO PUSH2 0x119B JUMPI PUSH1 0x0 DUP1 REVERT JUMPDEST DUP3 CALLDATALOAD SWAP2 POP PUSH1 0x20 DUP4 ADD CALLDATALOAD PUSH1 0x5 DUP2 LT PUSH2 0x11B1 JUMPI PUSH1 0x0 DUP1 REVERT JUMPDEST DUP1 SWAP2 POP POP SWAP3 POP SWAP3 SWAP1 POP JUMP JUMPDEST PUSH1 0x0 DUP1 PUSH1 0x0 DUP1 PUSH1 0x0 PUSH1 0xA0 DUP7 DUP9 SUB SLT ISZERO PUSH2 0x11D4 JUMPI PUSH1 0x0 DUP1 REVERT JUMPDEST DUP6 CALLDATALOAD SWAP5 POP PUSH1 0x20 DUP7 ADD CALLDATALOAD SWAP4 POP PUSH1 0x40 DUP7 ADD CALLDATALOAD SWAP3 POP PUSH1 0x60 DUP7 ADD CALLDATALOAD SWAP2 POP PUSH2 0x11F9 PUSH1 0x80 DUP8 ADD PUSH2 0x103B JUMP JUMPDEST SWAP1 POP SWAP3 SWAP6 POP SWAP3 SWAP6 SWAP1 SWAP4 POP JUMP JUMPDEST DUP6 DUP2 MSTORE PUSH1 0x20 DUP2 ADD DUP6 SWAP1 MSTORE PUSH1 0x40 DUP2 ADD DUP5 SWAP1 MSTORE PUSH1 0x1 PUSH1 0x1 PUSH1 0xA0 SHL SUB DUP4 AND PUSH1 0x60 DUP3 ADD MSTORE PUSH1 0xA0 DUP2 ADD PUSH2 0x1236 PUSH1 0x80 DUP4 ADD DUP5 PUSH2 0xF8B JUMP JUMPDEST SWAP7 SWAP6 POP POP POP POP POP POP JUMP JUMPDEST PUSH1 0x20 DUP1 DUP3 MSTORE PUSH1 0x16 SWAP1 DUP3 ADD MSTORE PUSH22 0x14185E5B595B9D08191BD95CC81B9BDD08195E1A5CDD PUSH1 0x52 SHL PUSH1 0x40 DUP3 ADD MSTORE PUSH1 0x60 ADD SWAP1 JUMP JUMPDEST DUP5 DUP2 MSTORE DUP4 PUSH1 0x20 DUP3 ADD MSTORE PUSH1 0x60 PUSH1 0x40 DUP3 ADD MSTORE DUP2 PUSH1 0x60 DUP3 ADD MSTORE DUP2 DUP4 PUSH1 0x80 DUP4 ADD CALLDATACOPY PUSH1 0x0 DUP2 DUP4 ADD PUSH1 0x80 SWAP1 DUP2 ADD SWAP2 SWAP1 SWAP2 MSTORE PUSH1 0x1F SWAP1 SWAP3 ADD PUSH1 0x1F NOT AND ADD ADD SWAP4 SWAP3 POP POP POP JUMP JUMPDEST PUSH1 0x60 DUP2 ADD PUSH2 0x12BB DUP3 DUP7 PUSH2 0xF8B JUMP JUMPDEST PUSH2 0x12C8 PUSH1 0x20 DUP4 ADD DUP6 PUSH2 0xF8B JUMP JUMPDEST DUP3 PUSH1 0x40 DUP4 ADD MSTORE SWAP5 SWAP4 POP POP POP POP JUMP JUMPDEST PUSH4 0x4E487B71 PUSH1 0xE0 SHL PUSH1 0x0 MSTORE PUSH1 0x11 PUSH1 0x4 MSTORE PUSH1 0x24 PUSH1 0x0 REVERT JUMPDEST PUSH1 0x0 PUSH1 0x1 DUP3 ADD PUSH2 0x12FE JUMPI PUSH2 0x12FE PUSH2 0x12D6 JUMP JUMPDEST POP PUSH1 0x1 ADD SWAP1 JUMP JUMPDEST DUP1 DUP3 ADD DUP1 DUP3 GT ISZERO PUSH2 0x471 JUMPI PUSH2 0x471 PUSH2 0x12D6 JUMP INVALID 0xF9 SWAP7 0xDA PUSH22 0x4C790E95D5C7CA3330CFCAD529487FE9D1D8EDB7AFC6 POP PUSH23 0xFDF9ADB4A49807205CE4D355092EF5A8A18F56E8913CF4 LOG2 ADD 0xFB 0xE2 DUP8 DUP3 JUMPDEST MULMOD JUMP SWAP4 0xC2 OR PUSH22 0xA2646970667358221220C2C69210D6E668D66A70E5F2 JUMP 0xC2 EXTCODESIZE PUSH31 0xF978CCFBE6A2DDA9B48CF6532C3FAC7764736F6C6343000814003300000000 "},"methodIdentifiers":{"ADMIN_ROLE()":"75b238fc","DEFAULT_ADMIN_ROLE()":"a217fddf","RECORDER_ROLE()":"bea86581","appointmentPayments(bytes32)":"6cc08d9b","getPatientPayments(address)":"fdfa9b2c","getPayment(bytes32)":"e66eefc8","getPaymentByAppointment(bytes32)":"935768ec","getPaymentHistory(bytes32)":"16cac02a","getRoleAdmin(bytes32)":"248a9ca3","getStatistics()":"372d6b27","grantRecorderRole(address)":"504a3344","grantRole(bytes32,address)":"2f2ff15d","hasRole(bytes32,address)":"91d14854","patientPayments(address,uint256)":"0f721961","paymentHistory(bytes32,uint256)":"bbe20ed0","payments(bytes32)":"0716326d","recordPayment(bytes32,bytes32,bytes32,uint256,address)":"dc85e4a9","refundPayment(bytes32,string)":"1cc49495","renounceRole(bytes32,address)":"36568abe","revokeRecorderRole(address)":"39009cbd","revokeRole(bytes32,address)":"d547741f","supportsInterface(bytes4)":"01ffc9a7","totalAmountRecorded()":"73962a5e","totalPaymentsRecorded()":"9e59d9eb","updatePaymentStatus(bytes32,uint8)":"8e0d76b8","verifyPayment(bytes32,bytes32)":"0ac849f0"}}}}}